:100000003FC690C691C64CC64BC64AC679C648C6BE
:1000100047C646C68CC644C643C642C641C640C64D
:100020003FC63EC63DC653595354454D2044432018
:10003000454C454354524F4E4943204C4F41440098
:10004000363036304220202020332D3630562F30A7
:100050002D3630412033303057002A2A2A2A2A2AC6
:100060002A2A2A2A2A2A003420F0FCFEFEFFFFFF5B
:10007000FFFFFFFFFFFF7F3F1F0F070703C1F8FFD1
:100080007F0F0100020303030707070F1F3F7FFFD6
:10009000FFFFFFFFFFFFFFFFFFFEFEFCF0FFFFFF84
:1000A000FFFFFFFFFFFFFFFF070100000000C0F898
:1000B000FF7F1F8FFCFCFC1800E0FCFC7C0CCCFCE0
:1000C000FC7C0000010FFFFFFFFFFFFFFFFFFFFFB2
:1000D000FFFFFFFFFFFFFFFFFFFFFFFFE0800000CC
:1000E000303E3F1F03303E3F3F07C0F8FF7F7F6336
:1000F000707E3F1F0300000080F0FFFFFFFFFFFF47
:10010000FFFFFFFFFF0F3F7F7FFFFFFFFFFFFFFFAF
:10011000FFFFFFFCF8F8F0E0E06000C0F8FEFF1F12
:1001200083C0C0C0E0E0E0F0F8F8FEFFFFFFFFFF93
:10013000FFFFFFFFFF7F7F3F0F000002072023002C
:1001400000A060C0C06C6C000011102065000000B1
:10015000000000000000000000000000000000009F
:10016000000000000000000000000000000000008F
:1001700000000000000080F0FE3E060000000000CD
:100180000080C0C0C0C0C0C0C0C0C000000000002F
:1001900000000000F0FC3E0680F0FE3E060000007D
:1001A000000000000000000000000000000000004F
:1001B000000000000000F0FCBE8680F0FEBE8680DD
:1001C0008000000060FCFFCFC1E1FDFFCFC1C10195
:1001D0000100000000000000F0FCBE8783F3FFBFB9
:1001E0008783030301000080C0C1C1E1FDFFCFC1CF
:1001F000F17F3F07000000000000F0FCBE8783F3A2
:10020000FFFFBF9F0F0701000080E0F9DDEFFFFF58
:10021000CFC1F17F3F070000000000000000007F19
:100220007F7343613B1F0F0701000080E0F8DCCEC5
:10023000C6C2DEFEFC7E3F0700000000000000009A
:10024000000080F0FE3E06000000000000000000FC
:10025000000000000000000000000000000000009E
:10026000F0FC3E070303030103030303010060FCEA
:10027000FFCFC1C0C0C0C0C0C0000000000000006F
:100280000000000000030303030103C3FB7F1F0200
:100290000080C0C0C0C0C0C0C0C0F07E3F0700002A
:1002A000000000000000003CF8C0F8DE62100C0402
:1002B000000000004061198DF73F0F7F71010100C0
:1002C0000000000000000080808080F0FEBE86807C
:1002D000800000000000000101617D3F0F0101016D
:1002E000010000000000000000000000000000000D
:1002F000000000000000000020381C0E0602000074
:10030000000000000000000000000080808080806D
:100310008080808080000000000000010101010158
:1003200001010101010000000000000000000000C8
:1003300000000000000000000000607C7F0F010052
:1003400000000000000000000000000000000000AD
:10035000000000004060381C0C0400000000203841
:100360001C0E06020000000000000000000000005B
:10037000F0FC3E07030343613BDFFF7F1F0260FC8D
:10038000FFFFDDCEC6C2C0C0F07E3F070000000008
:100390000000000000000000406038DCFC7E1E020F
:1003A00000000000000000000000707E3F07000019
:1003B00000000000008080838383838183C3FB7FF0
:1003C0001F0260FCFFCFC1C1C1C1C1C1C101010099
:1003D000000000000000008080838383838183C34A
:1003E000FB7F1F020080C0C1C1C1C1C1C1C1F17F7B
:1003F0003F07000000000000F0FCBE868080808087
:1004000080C0F87E1E02000000010101010101010F
:10041000717F3F070000000000000000007F7F7335
:1004200083818383030301000080C0C0C0C0C0C0BB
:10043000C1C1F17F3F07000000000000F0FCBE8753
:100440008383838183830303010060FCFFCFC1C1E9
:10045000C1C1C1C1F17F3F070000000000000000E2
:1004600000030303030103C3FB7F1F02000000001E
:10047000000000000000707E3F0700000000000048
:10048000F0FCBE878383838183C3FB7F1F0260FCF4
:10049000FFCFC1C1C1C1C1C1F17F3F070000000052
:1004A0000000F0FCBE878383838183C3FB7F1F0230
:1004B0000080C0C1C1C1C1C1C1C1F17F3F070000FF
:1004C000000000000000000000000406060000001C
:1004D000000000000000004060600000000000001C
:1004E0000000000000000000000080F0FE3E06005A
:1004F00000000000000020381C0E06020000000072
:10050000000000000000000000000000000040604B
:10051000381C0C04000000000000000000001E3E1B
:100520003C0000000000000000000080808080800F
:1005300080808080800000000080C0C1C1C1C1C136
:10054000C1C1C10101000000000000000000007CEA
:100550007C700000000000000000000020381C0E2D
:100560000602000000000000000000000000F0FC97
:100570003E070303838183C3FB7F1F02000000004B
:1005800000607C3F0F01010101000000000000003D
:10059000F0FC3E070303030103C3FB7F1F0200803F
:1005A000E0F8DCCEC6C2DEFEFC7E3F0700000000A5
:1005B0000000F0FCBE878383838183C3FB7F1F021F
:1005C000607C7F0F010101010101717F3F07000085
:1005D000000000000000000383F3FFBF87C3FB7F20
:1005E0001F020080C0C0C0E0FCFFCFC1F17F3F0709
:1005F000000000000000F0FC3E07030303010303BA
:100600000303010060FCFFCFC1C0C0C0C0C0C00078
:1006100000000000000000000000000383F3FF3F23
:1006200007C3FB7F1F020080C0C0C0E0FCFFCFC03B
:10063000F07E3F07000000000000F0FCBE878383CF
:10064000838183838303010060FCFFCFC1C1C1C1EB
:10065000C1C1C1010100000000000000F0FCBE8724
:1006600083838381838383030100607C7F0F010187
:100670000101010101010100000000000000F0FC87
:100680003E070303838183830303010060FCFFCFE4
:10069000C1C0C0C0C1C1F17F3F0700000000000021
:1006A000F0FCBE868080808080C0F87E1E02607C68
:1006B0007F0F010101010101717F3F070000000070
:1006C00000000000000383F3FF3F07030303010062
:1006D0000080C0C0C0E0FCFFCFC0C0000000000030
:1006E00000000000000000000000000000C0F87ED4
:1006F0001E0260FCFFCFC1C0C0C0C0C0F07E3F077B
:10070000000000000000F0FCBE8680804060381CC5
:100710000C040000607C7F0F010101011E3E3C00C3
:100720000000000000000000F0FC3E060000000099
:1007300000000000000060FCFFCFC1C0C0C0C0C00E
:10074000C0000000000000000000F0FC3E7E7C7055
:10075000406038DCFC7E1E02607C7F0F01000000E0
:100760000000707E3F07000000000000F0FC3E7EAD
:100770007C70000000C0F87E1E02607C7F0F0100CC
:1007800000001E3E7C7E3F07000000000000F0FCE1
:100790003E070303030103C3FB7F1F0260FCFFCF7F
:1007A000C1C0C0C0C0C0F07E3F0700000000000014
:1007B000F0FCBE878383838183C3FB7F1F02607C41
:1007C0007F0F010101010101010101000000000092
:1007D0000000F0FC3E070303030103C3FB7F1F027D
:1007E00060FCFFCFC1C0C0C0DEFEFC7E3F07000042
:1007F00000000000F0FCBE878383838183C3FB7FFE
:100800001F02E0FC7F0F010101011F7FFD010100BC
:10081000000000000000F0FCBE8783838381838397
:10082000030301000080C0C1C1C1C1C1C1C1F17FCA
:100830003F070000000000000000000383F3FF3FBB
:100840000703030301000000000000607C3F0F006D
:1008500000000000000000000000F0FC3E06000068
:10086000000000C0F87E1E0260FCFFCFC1C0C0C007
:10087000C0C0F07E3F070000000000000000007CC8
:100880007C70000000C0F87E1E0200000000000026
:1008900000001E3E7C7E3F07000000000000F0FCD0
:1008A0003E060000000000C0F87E1E02607C7F3F14
:1008B0001D0E06021E3E7C7E3F0700000000000069
:1008C0000000007C7C704060381C0C0400000000BC
:1008D00020381C0E06021E3E3C00000000000000F6
:1008E00000000000007C7C704060381C0C0400009C
:1008F0000000000000607C3F0F00000000000000CE
:1009000000000000008080838383C3E1BB9F8F07CA
:1009100001000080E0F9DDCFC7C3C1C1C101010002
:10092000000000000000F0FC3E0783F3FF3F0703D8
:100930000303010060FCFFCFC1E0FCFFCFC0C0009B
:1009400000000000000000000000007C7C7000003F
:1009500000000000000000000000000000001E3E3B
:100960003C0000000000000000000000000383F3D2
:10097000FF3F07C3FB7F1F020080C0C0C0E0FCFF39
:10098000CFC0F07E3F070000000000000000000024
:1009900000000000000000000000000020381C0ED5
:1009A00006021E3E3C0000000000000000000000A7
:1009B0000000000000000000000000000080C0C037
:1009C000C0C0C0C0C0C0C0000000000000000000E7
:1009D0000000007C7C7000000000000000000000AF
:1009E0000000000000000000000000000000000007
:1009F0000000008080838383838183C3FB7F1F0289
:100A000060FCFFCFC1C1C1C1C1C1F17F3F07000080
:100A100000000000F0FCBE868080808080800000A6
:100A2000000060FCFFCFC1C1C1C1C1C1F17F3F0760
:100A30000000000000000080808080808080808036
:100A40008000000060FCFFCFC1C1C1C1C1C1C101B4
:100A50000100000000000000008080808080808015
:100A600080C0F87E1E0260FCFFCFC1C1C1C1C1C100
:100A7000F17F3F07000000000000F0FCBE87838389
:100A8000838183C3FB7F1F0260FCFFCFC1C1C1C153
:100A9000C1C1C101010000000001E20507207F0083
:100AA0000000000000005F00000007000700147F46
:100AB000147F14242A7F2A122313086462364955AE
:100AC00022500005030000001C2241000041221CAE
:100AD00000082A1C2A0808083E08080050300000B8
:100AE0000808080808006060000020100804023EA2
:100AF0005149453E00427F400042615149462141F3
:100B0000454B311814127F1027454545393C4A4959
:100B100049300171090503364949493606494929D1
:100B20001E00363600000056360000000814224130
:100B3000141414141441221408000201510906323D
:100B40004979413E7E1111117E7F494949363E4126
:100B50004141227F4141221C7F494949417F090986
:100B600001013E414151327F0808087F00417F4129
:100B7000002040413F017F081422417F4040404017
:100B80007F0204027F7F0408107F3E4141413E7F87
:100B9000090909063E4151215E7F09192946464946
:100BA00049493101017F01013F4040403F1F204042
:100BB000201F7F2018207F63140814630304780427
:100BC00003615149454300007F4141020408102060
:100BD00041417F00000402010204404040404000C7
:100BE0000102040020545454787F48444438384467
:100BF000444420384444487F3854545418087E09EB
:100C00000102081454543C7F0804047800447D40D9
:100C1000002040443D00007F10284400417F4000F8
:100C20007C041804787C0804047838444444387CF4
:100C300014141408081414187C7C0804040848547C
:100C4000545420043F4440203C4040207C1C204021
:100C5000201C3C4030403C44281028440C5050504C
:100C60003C4464544C44000836410000007F0000BE
:100C7000004136080008082A1C08103070301000A7
:100C800011241FBECFE5D4E0DEBFCDBF20E0A0E63B
:100C9000B0E001C01D92AF38B207E1F726D335C4EA
:100CA000A8C0803439F040F4883061F08C3041F0D5
:100CB000843051F482E20895803821F0803C21F4A0
:100CC00081E2089583E2089580E208958823A1F0E7
:100CD000803210F4805C08958C3251F08E3251F0E5
:100CE0008A3351F0803458F0863440F4805E0895A1
:100CF0008CE308958EE308958AE208958FE30895C2
:100D00008F938FB78F939F93809160009091610034
:100D1000019690936100809360009F918F918FBFA7
:100D20008F9118956E98189582996E9A18950F92D2
:100D30000FB60F921F9211242F933F938F939F937F
:100D4000AF93BF93EF93FF932FB7F8948FB1839B2B
:100D500037C08A3289F140F48A3069F091E08A31F3
:100D600061F1109262000CC08C3BD9F793E0909334
:100D7000630092E003C01092630096E090936200DB
:100D800090916200992351F0E091630039E0E39F74
:100D9000F0011124EB59FF4F808391832FBFFF9106
:100DA000EF91BF91AF919F918F913F912F911F90A4
:100DB0000F900FBE0F90189592E090936300DDCFD7
:100DC00090916200992399F0E091630039E0E39FEC
:100DD000F0011124EB59FF4FDF01A90FB11D11964E
:100DE0008C9381E08087915090936200D7CF6E986A
:100DF000D5CF1895203F19F5BC9ABB98BD98BA98E5
:100E0000411126C040E450E2659FB001112430E05A
:100E1000203F09F030E154E0859FC00111248C701F
:100E2000862B622F6270862B622F6170862B842B3B
:100E3000832B8DB922FB222720F92EB90895BC9867
:100E4000BB9ABD9ABA9A98B39C6298BBC498D8CF03
:100E500040ECD9CF8FB9779BFECF8FB10895909892
:100E6000C098C1980895AC98AD9822B3982F907F00
:100E70002F70922B92BB95B38F70907F892B85BB7F
:100E800060FD909A61FDC09A62FDC19AE8CF8D33F2
:100E900010F4909A08958D53803510F4C09A0895F7
:100EA000C19A0895CF93C82F8091890062E08D3355
:100EB00019F08D3819F464E080E0D5DFAC9AAD9874
:100EC00092B38C2F807F9F70892B82BB85B3CF70AC
:100ED000807FC82BC5BB80918900D9DFCF91BFCF60
:100EE000CF93DF9367E080EEBEDF81B38F7081BB6D
:100EF00084B3807F84BBAC9AAD9AC9E8D0E0888186
:100F0000C6DFADDF8881C3DFD0B3C3B3A8DF81B351
:100F1000806F81BB84B38F6084BB67E08EEEA3DFFC
:100F20008D2F807FCF708C2BDF91CF91089584B36C
:100F3000806384BB889AB89AB99A81B3806F81BB69
:100F400084B38F6084BB67E084EA8DDF67E089EA61
:100F50008ADF67E080EA87DF67E08EEE84DF67E0A4
:100F600080EC81DF67E08FEA7ECFCF938A3CD8F4B4
:100F70006032C8F48093890060938A00C62FC695BA
:100F8000C695C69561E08D3340F093EC980F8D586F
:100F900064E0903510F4892F62E065DF67E088EB4C
:100FA0008C0FCF9160CFCF910895EF92FF921F9356
:100FB000CF93DF93C82F809189008A3CB8F51091B8
:100FC0008A00103298F5177061F18ADFD0E0E12EC7
:100FD000F12C9E0101C0220F1A95EAF7822B62DFE5
:100FE00060918A00683148F0809189008F5FDF91BD
:100FF000CF911F91FF90EF90B8CF685F80918900EB
:10100000B4DF6EDF28E030E02E193F0902C0D5952D
:10101000C7952A95E2F78C2B45DF60918A006850CE
:10102000E3CF8C2F3FDF60918A00DECFDF91CF913D
:101030001F91FF90EF9008950F931F93CF93DF932D
:10104000DBEB082F007FC82FCF7067E08D2F0BDF01
:1010500067E080E008DFAC9AAD981AEC115040F4DC
:10106000D150D73B91F7DF91CF911F910F91089508
:10107000812F0DDF82B38F70802B82BB85B3807F81
:101080008C2B85BBECDEEACF8F929F92AF92BF9202
:10109000CF92DF92EF92FF920F931F93CF93DF9344
:1010A000FC01F62ED42FE22E89EC861780F0403218
:1010B00070F494908F010E5F1F4F3196C491C695C6
:1010C000C695C695812CA92CB12C8C120DC0DF9130
:1010D000CF911F910F91FF90EF90DF90CF90BF9035
:1010E000AF909F908F9008956D2F8F2D3EDFD12C64
:1010F000C12CC91428F00A0D1B1D8394D85FE5CFBD
:10110000F801EC0DFD1D8491EE2019F092E0E9123A
:1011100001C080E04ADF8FEFC81AD80AEACFFC018D
:101120008491089590938E0080938D0060938B003E
:1011300020938C0008959F92AF92BF92CF92DF923E
:10114000EF92FF920F931F93CF93DF93009189004B
:101150000A3C08F0A5C0F0908A009FE19F1508F4B2
:101160009FC0803208F49CC020918D0030918E0089
:10117000F90133966491A9014C5F5F4FFA01949194
:101180003196C491FA014491891708F489C0E1E0CD
:10119000EC0FE41BCE2FD0E0AE01490F511D841798
:1011A00015060CF07DC070E0695F7F4F43E07595D8
:1011B00067954A95E1F7891BF90132969491482F7A
:1011C00050E0992309F43FC01491469FC001479F06
:1011D000900D569F900D1124189FE001199FD00D7E
:1011E00011242696C12ED12C962EE12CE91055C043
:1011F00080918C00800F6F2D810FDF91CF911F9117
:101200000F91FF90EF90DF90CF90BF90AF909F90A5
:10121000ACCEF601E80FF91FE491AE0FB11D0196B7
:1012200084179507B0F36A9FC0016B9F900D7A9F5A
:10123000900D11242696C80FD91FFA013696E20F99
:10124000F31F1491CFCF90E080E0B0E0A0E06901FF
:10125000F6E0CF0ED11CE4CFE0918D00F0918E002E
:10126000C5018C0F9D1FE80FF91F849190918B0091
:10127000923009F4809599DE8FEFA81AB80AA1166A
:1012800058F360918A00CC0DDD1D683108F0B0CFB5
:10129000685F802F6ADEE394A9CFB12CA12CEFCF39
:1012A000DF91CF911F910F91FF90EF90DF90CF9042
:1012B000BF90AF909F900895CF93DF93EC018991F9
:1012C000811103C0DF91CF91089535DFCE01F6CFB4
:1012D000CF93DF93EC01FE0184912196811103C02D
:1012E000DF91CF91089527DFF6CF88E19FE00FB619
:1012F000F894A89581BD0FBE91BD85B7866085BF66
:101300008AB7806C8ABF8BB7806C8BBF81B3887FB4
:1013100081BB82B3876082BB89E08EBD8AB59BB5F5
:101320008F679E639BBD8ABD89B7806189BFFFDDE2
:1013300020EF41E061E080E05DDDE5E6F0E084E2A1
:10134000DF011D928A95E9F77894A89580E074DE14
:1013500020E040E061E087E491E0E4DE68E080E0E6
:1013600004DE8AE590E0B4DF2CE040E061E089E94A
:101370009AE0D8DE68E184E0F8DDCCE08FE7DBDEE0
:10138000C150E1F7809160009091610091FFFACF28
:10139000A89580E051DE21E040E060E087E690E043
:1013A00073DE21E040E061E089E99AE0BBDE68E0BD
:1013B00085E3DBDD80E490E08BDF60E185E3D5DD74
:1013C00086E290E085DF809160009091610092FF5D
:1013D000FACFA89580E030DEA895EE24E394F12CB6
:1013E00095E6C92E90E0D92E04E280B3182F147030
:1013F00082FDFBCF80916D00813009F074C0809137
:101400007600813009F06FC080917F00813009F053
:101410006AC080918800813009F065C020E040E01A
:1014200061E087E491E07EDE68E080E09EDDB12C43
:10143000CB2DC695D0E0CB59DF4F8A8182958F7036
:101440009B859073892B2C89B4E02B9F90011124EC
:101450002074822B3BDC6FDE8B85E0E18E9FC00128
:10146000112480732C89F0E42F9F900111242074A3
:10147000822B9A819F70892B29DC5DDEB394B39413
:101480002CE0B212D5CF2FE040E061E089E391E09B
:1014900049DE60E18EE069DDC12FC695D0E0CB5911
:1014A000DF4F8B85807CFDDB46DE8B858C70F9DB26
:1014B00042DE1E5F1C3081F7C0918200D091830014
:1014C000DC27CD27DC272CE040E061E089E99AE0C9
:1014D00029DE68E184E049DD115038F4D601E02FBF
:1014E0001D92EA95E9F7A89580CFC701012E02C0A9
:1014F000880F991F0A94E2F78C239D23892B19F0FA
:0E1500008FE719DEE9CF80E2FCCFF894FFCF31
:00000001FF
